:100000000C946C010C9489010C9489010C943D1A98
:100010000C9489010C9489010C9489010C94890138
:100020000C9489010C9489010C94401F0C941420A9
:100030000C9460170C9489010C9489010C9489012B
:100040000C9489010C9489010C9489010C94890108
:100050000C9489010C9403180C9489010C94890167
:100060000C9489010C9489010C9489010C948901E8
:100070000C9489010C9489010C9489010C948901D8
:100080000C9489010C9489010C9489010C948901C8
:100090000C9489010C9489010C9489010C948901B8
:1000A0000C9489010C9489010C94890129001E008B
:1000B0001F002000210022002B0014001A0008005D
:1000C00015001700E10004001600070009000A00EF
:1000D000E0001D001B000600190005000000E30001
:1000E0002152E2002C002F002A00270026002500C4
:1000F000240023002D00130012000C0018001C0027
:10010000340033000F000E000D000B00E500380036
:10011000370036001000110000004C00225235005C
:10012000280030003A003B003C003D003E003F000C
:10013000BE00BD00B500B400B900A600E100040097
:100140001600070009000A00E0001D001B00060061
:10015000190005000000E3000000E2002C002F0061
:10016000450044004300420041004000A900AA00AD
:10017000A800BB00AE00BC00340033004F005200AA
:1001800051005000E5003800370036002E003100E5
:1001900000004C0000003500280030003A003B0011
:1001A0003C003D003E003F0035001E001F002000C7
:1001B00021002200E10004001600070009000A00E7
:1001C000E0001D001B000600190005000000E30010
:1001D0000000E2002C002F004500440043004200D4
:1001E00041004000310027002600250024002300A4
:1001F000340033004F00520051005000E500380039
:10020000370036002E00310000004C0000003500A1
:100210002800300000AE00AF00DA0281FFD9F1DB28
:1002200020A4A62EAF00A0C0D30000A1C8D3000018
:10023000AED580A81F408D1420000E034C0069002D
:100240006C00790035003800000010036C00690074
:100250006C00690075006D00730000000403090460
:1002600009022200010100A0FA09040000010301B3
:100270000100092111010001224400070581030842
:1002800000011201000200000008D8042DEB00015B
:100290000102000105010906A101050719E029E78E
:1002A00015002501950875018102950175088101E8
:1002B0000507190029FF150026FF0095067508811E
:1002C00000050819012905150025019505750191FD
:1002D00002950175039101C011241FBECFEFDAE032
:1002E000DEBFCDBF11E0A0E0B1E0EEE8F5E402C072
:1002F00005900D92A234B107D9F724E0A2E4B1E051
:1003000001C01D92AC36B207E1F70E9496120C9420
:1003100086220C9400008330B8F46A30A8F446308A
:1003200098F450E096E0699F400D511D1124FA01A8
:100330009CE3899FE00DF11D1124EE0FFF1FE45592
:10034000FF4F85919491089581E090E008950E9477
:100350008B01089581E008950E94AA01089581E02B
:1003600008950E94AA0108950E94B1010895089578
:100370000E94B7010895A6E0B0E0E1ECF1E00C9432
:10038000F62149835A839E833091490189819A815C
:1003900031111AC03E81332399F0222389F00E9443
:1003A000E106182F682F89819A810E94BD06698114
:1003B0007A81812F0E94A60D2696E3E00C941222EA
:1003C0000E94CF06182FF3CF0E94E10669817A813F
:1003D000F1CFFC01262F408151816281738184819C
:1003E00095810E94BB010895CF93DF93EC0161E0FA
:1003F0000E94E901BE010E94AC01DF91CF910895F6
:10040000CF93DF93EC0160E00E94E901BE010E94FE
:10041000B801DF91CF91089581E008950E940C0208
:100420000895CF93C82F0E9492058C2F0E940E0230
:100430002FEF84E39CE0215080409040E1F700C022
:100440000000CF91089581E00E9411020E942718B8
:10045000089580E00E9411020E94381808950F93B9
:100460001F93CF93DF938C0161E00E94E901EC01BF
:10047000B8010E94B401811106C080E0DF91CF91E4
:100480001F910F910895B801CE010E94481688234C
:10049000A1F3B801CE010E940815882371F3B801B9
:1004A000CE010E94DE14882341F3F8018581882360
:1004B00061F0C330FCE7DF07E9F058F4C115ECE761
:1004C000DE07A9F0C130DC47B9F0C8010E94AF01D6
:1004D000D5CFCB358CE7D807A9F0CC35ECE7DE07D4
:1004E00071F0CA35DC4789F70E94F80AEECF0E9406
:1004F0002302C3CF0E94000B0E942902BECF0E949C
:10050000EE0AE3CF0E94FC0AE0CF0E943D170E9452
:10051000AE020E946D1408950E94B2020E9442171A
:100520000895089581E008950895CF93DF93D82F1B
:100530000E949202C82F882319F08D2F0E949402E6
:100540008C2FDF91CF9108950895CF93C82F0E94EB
:1005500091028C2F0E949502CF91089580E00E9415
:10056000A50208950E9491160E94A5020895CF93B6
:100570000E949116C82F809144018C1779F0C09386
:1005800044010E94CC17609345017093460180930B
:100590004701909348018C2F0E94A502CF910895A6
:1005A000ADE0B0E0E6EDF2E00C94F7214887598722
:1005B0006A877B878C879D8791110E942E0A1F82F4
:1005C00086E0FE013896DE01119601900D928A9523
:1005D000E1F78D8181110DC029813A814B815C81C8
:1005E0006D817E818F810E9478092D96E2E00C94C6
:1005F0001322CE0101960E94F4018111EDCFF5CFB7
:10060000FC012481213021F4808191810E94130713
:100610000895CF93C82F882399F08CEF8C0F813ADF
:1006200088F48C2F0E94C516882329F08C2F0E94F5
:1006300008170E949D0A8C2F0E9400170E949D0A95
:10064000CF91089580E28C0F8830D0F7C77081E099
:1006500001C0880FCA95EAF70E94110AEFCF8823DC
:1006600041F09CEF980F913A28F40E9408170E94DD
:100670009D0A089590E2980F9830D8F7877091E01E
:1006800001C0990F8A95EAF7892F0E94170AEFCFC8
:100690001F93CF93DF93182FEB010E94090320973C
:1006A00039F4812F0E942F03DF91CF911F9108957C
:1006B0008FE99FE00197F1F700C000002197EFCF8D
:1006C00070E060E0893311F460E570E00E94480357
:1006D0000895882321F00E94110A0E949D0A08951E
:1006E000882321F00E94170A0E949D0A0895B0E015
:1006F000A0E0EDE7F3E00C94F0216C01D62FC72FBA
:10070000FC011581068102950F700E94070AE82EF0
:100710008823F9F0E12E1123E1F08C2F807F8034C3
:1007200061F080E28D0F883008F18C2F807E80325E
:1007300021F4D230D8F00023C9F08091380282FF32
:1007400015C082E00E94C20A0E94070A91E0E82ECA
:10075000E926BC2EB2949FE0B922FBE0FB15B8F16C
:10076000EB2DF0E0E857FD4D0C94E121E12CF1CFA9
:100770000C2F0F70C07F11F00295007F112399F0AC
:10078000002359F080E28D0F883010F0D11107C09E
:10079000802F0E94110A0E949D0A8D2F5AC0802F1F
:1007A0000E94210AF8CF8D2F0E942F03002379F099
:1007B00080E28D0F883010F0D11104C0802F0E948C
:1007C000170A03C0802F0E94270A0E949D0AEB2D62
:1007D000E850FF0B349720F40E9491160E94A50266
:1007E000EE2089F00E94030A80FD0DC0F6011582FB
:1007F0000E94FD090E941B06C6010E9465050E9419
:10080000FD090E942B06CDB7DEB7E9E00C940C225F
:100810002C2F2F70F22EC07FC03219F0F29480EF8F
:10082000F822DD2341F0D130D1F1112309F444C085
:100830000023F1F0B2CF8091380282FD15C0112360
:1008400059F0FF2029F08F2D0E94110A0E949D0A65
:1008500080E00E940903BBCF80E00E942F03FF20AD
:1008600009F4B5CF8F2DABCF112369F0011104C06E
:100870008F2D0E946903ABCF013009F0A8CF8F2DD7
:100880000E94450AA4CF0111A2CF8F2D0E947003B0
:100890008F2D0E94510A8F2D0E94350A98CF112367
:1008A00021F0063008F093CFE3CF053008F08FCF6A
:1008B0008F2D0E9470038BCF0023D1F3D93349F4DD
:1008C0003FEF87EE93E0315080409040E1F700C069
:1008D00000008D2F0E942F037ACF8C2F8370A1F5FB
:1008E000111175CF4D2F429546954770440F440F17
:1008F0002D2F2F7030E0042E02C0220F331F0A94D8
:10090000E2F790E080E0D4FF09C08FE090E002C001
:10091000880F991F4A95E2F780959095C695C695E0
:10092000C370822B932BC23049F058F4C13019F0B8
:100930000E94EB054CCF0E94E20549CF0E94F405CE
:1009400046CF0E94DF0543CF8695112311F08C2FEF
:100950008170882309F43BCF4D2F4295469547700F
:10096000440F440F2D2F2F7030E0042E02C0220FB1
:10097000331F0A94E2F790E080E0D4FF09C08FE0D3
:1009800090E002C0880F991F4A95E2F780959095F4
:10099000C695C695C370822B932BC23049F058F48C
:1009A000C13019F00E94560612CF0E944D060FCF9B
:1009B0000E945F060CCF0E94030609CFCF7011235F
:1009C00029F08C2F0E941B068D2F53CF8D2F0E9454
:1009D00070038C2F0E942B06FACED23F41F160F4B7
:1009E000D03FB9F0D13F81F0112309F446C0011185
:1009F000D4CE8C2F8F711FC0D33F01F1D43FA1F70C
:100A00008091380282FD24C08C2F8F71112311F345
:100A100012C0112341F0053008F0D9CE8C2F8F7110
:100A20000E943D06D4CE063008F0D1CEF7CF8C2FF1
:100A30008F711111CFCF0E941B06C9CE112329F04F
:100A40008C2F8F710E940F06C2CE0E940A06BFCE65
:100A5000112349F0CF718C2F0E941B0663E08C2F6D
:100A60000E94A40AB4CE81E00E94C20A023008F4B7
:100A7000AECE82E00E94C20AAACE002359F0D9333A
:100A800009F027CFEFEFF7EE23E0E150F0402040F0
:100A9000E1F71DCF8C2F8F719DCF0F931F93CF93B5
:100AA000DF93EC01688179818D810E941E078C01A2
:100AB0000E9468060E94DE05B801CE010E947703FD
:100AC000DF91CF911F910F910895CF93DF93EC01A8
:100AD0008C81882399F0CE010E942F02811111C0D0
:100AE0000E94070A882351F08D81882339F0809174
:100AF000380282FF03C082E00E94C20ADF91CF91D8
:100B00000895CE010E944D05CE010E940002F6CF4D
:100B10000E942E0A0E949D0A08950E9410170E94AA
:100B2000880508950E941E0A0E948D0508959295D9
:100B30009F70963091F058F4925F9F70923058F405
:100B4000803F19F030F4883E30F481E008959A5FD8
:100B5000F4CF843FD1F380E00895883EB0F3813F25
:100B6000D1F7F3CFFC012481222339F080819181D8
:100B70000E9413070E949705089580E00895A6E05B
:100B8000B0E0E5ECF5E00C94F7212696E2E00C9459
:100B90001322A7E0B0E0EFECF5E00C94F7212796E4
:100BA000E2E00C94132208950E94D30508950E9458
:100BB000D40590936D0180936C01089508950E946F
:100BC000D705089520916C0130916D01822B932BF4
:100BD0000E94D705089520916C0130916D01822308
:100BE00093230E94D705089520916C0130916D01E7
:100BF000822793270E94D70508950E94D305089560
:100C00000E94FD0508950E94000690936B01809359
:100C10006A01089590E080E00E940306089521E0B3
:100C200030E0A90102C0440F551F8A95E2F7CA01BE
:100C30000E940306089521E030E002C0220F331F16
:100C40008A95E2F780916A0190916B01822B932B38
:100C50000E940306089521E030E002C0220F331FF6
:100C60008A95E2F72095309580916A0190916B0109
:100C7000822393230E940306089521E030E002C0FE
:100C8000220F331F8A95E2F780916A0190916B01E0
:100C9000822793270E940306089520916A013091CC
:100CA0006B01822B932B0E940306089520916A0109
:100CB00030916B01822393230E94030608952091B3
:100CC0006A0130916B01822793270E9403060895E1
:100CD0000895262F277091E001C0990F2A95EAF711
:100CE00023E0769567952A95E1F7660F771F660FE3
:100CF000771FFA01E60FF71F50E040E0682F70E021
:100D00008191DF0111979B01042E02C03695279532
:100D10000A94E2F7217021952827292328272C936C
:100D20004F5F5F4F4430510559F70895A82FA770C2
:100D300023E0969587952A95E1F7880F991F880FEC
:100D4000991FFB01E80FF91F50E040E080E021917E
:100D500030E00A2E02C0369527950A94E2F72170FA
:100D60003327042E01C0220F0A94EAF7822B4F5F2B
:100D70005F4F4430510559F70895262F9A3070F48B
:100D8000863060F4682F70E086E0989F600D711DDA
:100D900011244AE451E0822F0E9469060895292F08
:100DA0009A3068F4863058F490E06AE471E036E0F6
:100DB000239F800D911D11240E949606089580E0C6
:100DC0000895B0E0A0E0E7EEF6E00C94F0217C019D
:100DD00000916A0110916B0180916C0190916D01FD
:100DE000082B192BCFE0D0E0CC24C394D12CBC2EFF
:100DF000C6010C2E02C0880F991F0A94E2F78023C7
:100E00009123892B49F4219790F7B12C8B2DCDB7E5
:100E1000DEB7E9E00C940C22B7018C2F0E94B20DD2
:100E2000019789F3F3CFCF93DF93EC010E94E106A2
:100E3000BE010E94B20DDF91CF9108951F93CF9311
:100E4000DF93EB0190914901992339F0CB010E9486
:100E50001307DF91CF911F910895882369F0CB018B
:100E60000E94E106182F682FCE010E94BD06BE0128
:100E7000812F0E94B20DEDCFCB010E94CF06182F1B
:100E8000F6CF1F93CF93DF93C0916E0117E080914F
:100E90006F018C1304C0DF91CF911F910895D0E0B2
:100EA0001C9FF0011D9FF00D1124E059FE4F208181
:100EB0003181428153816481758186810E94C90597
:100EC0002196C770E4CF2091A8013091A9014091EB
:100ED000AA015091AB016091AC017091AD0180917C
:100EE000AE010E94C9050895CF93DF938091AE01B2
:100EF000807F09F04DC08091AD01882309F448C07E
:100F0000E0916E0150916F01C091A901D091A801AB
:100F10006091AA017091AB0147E05E17C9F18E2F75
:100F200090E0E49FF0011124E059FE4F2481222338
:100F300091F1489FF001499FF00D1124DF01A05964
:100F4000BE4F11962C9111972C1325C02C912D1367
:100F500022C015962C91159721111DC012962D9126
:100F60003C91261B370B283C3105A8F48091AE013B
:100F70008F7080618093AE01EA58FE4F80818F7040
:100F80008061808388EA91E00E9465050E944107A4
:100F9000DF91CF910895FC013196E770BECF482FC5
:100FA00020916E0190916F0157E0291302C080E0FB
:100FB000089530E0529FF001539FF00D1124E05945
:100FC000FE4F8181681306C08081481303C085816C
:100FD0008111EECF2F5F3F4F2770E7CFA4E1B0E044
:100FE000E4EFF7E00C94ED218C0186E0F801DE01DE
:100FF0001F9601900D928A95E1F7F8018481E580B2
:1010000098EAA92E91E0B92E9091AC0191111FC0E0
:101010008823D1F0EE20A9F0C8010E94B205F82E75
:10102000882379F087E0F801D50101900D928A9527
:10103000E1F7C5010E9400030E9474070E94630744
:101040005FC0C8010E946505FF24F39459C0C080A9
:10105000D18082809380F090AD012091AA013091DF
:10106000AB01A401421B530BFF2009F4F9C0483C1B
:10107000510508F0A7C0882309F442C09091A90146
:101080008091AE01282F207F09F05CC09D1116C011
:101090009091A801C91212C0E1104EC08F708061FA
:1010A0008093AE010E94630788EA91E00E94650583
:1010B0008091AE01F8018683F12C22C0E1103CC082
:1010C0006D2D8C2D0E94CF076D2D8C2D0E94CF078A
:1010D000E82E8111F1CFCF86D88A8F8598890E941A
:1010E0001307292F22952F70243078F49F70223017
:1010F000A8F09923B9F0F8019681907F99F4FE2C1D
:101100008F2D6496ECE00C9409222A5F2F70223018
:1011100068F0C8010E946505EF2CF1CF992311F00A
:10112000882369F3805E883050F3F3CF803F38F333
:10113000815F833070F7E3CF8091AE01816080934F
:10114000AE01BACF9D1113C09091A801C9120FC072
:10115000E1100DC08683C8010E94650587E0F80193
:10116000A8EAB1E001900D928A95E1F767CFC80136
:101170000E94B205882309F464CFEE2009F461CF00
:101180008091AE01803288F02091A8013091A901B0
:10119000398728879B868A869091AC019C871D861B
:1011A0008E87CE0108960E94650587E0F801A8EABF
:1011B000B1E001900D928A95E1F70E9474070E94B8
:1011C000630742CF9091AE01292F207FA1F4682DB3
:1011D0009A8A898AA6017A899E2D0E94BF0588EA8B
:1011E00091E00E94650587E0F50111928A95E9F783
:1011F0000E94630761CF882309F482CF8091A901FF
:101200008D1110C08091A801C8120CC0E1100AC055
:101210009683C8010E94650587E0F50111928A95C1
:10122000E9F76ECFC8010E94B205882309F409CFFF
:10123000EE2009F406CF8091AE01803208F4B5CFDC
:101240002091A8013091A9013A8329839C828B8245
:101250009091AC019D831E828F83CE010196A3CF16
:10126000483C5105B8F5882309F4EECEFE2CEE205B
:1012700009F4E7CE8091A9018D111EC08091A801CB
:10128000C8121AC08091AE0180FD0DC0982F907FCA
:1012900051F08683903F09F45ECF982F907F905F46
:1012A0008F70892B57CF87E0F801A8EAB1E0019051
:1012B0000D928A95E1F724CFC8010E94B2058111F1
:1012C00074CF8091AE0181608093AE01C8010E940D
:1012D000650516CF682D9A8A898AA6017A899E2D7E
:1012E0000E94BF0587E0F50111928A95E9F7A6CE25
:1012F000AEE0B0E0EEE7F9E00C94F62128873987FC
:101300004A875B876C877D878E87CE0108960E940F
:10131000EE078823B1F06C85662341F02885398576
:101320004A855B857D858E850E94C90517E0809181
:101330006E0190916F0189133DC02E96E3E00C94ED
:10134000122287E0FE013896DE01119601900D927F
:101350008A95E1F78C85882349F320916F0130E06D
:10136000C90101968770992740916E0148171906A7
:1013700099F097E0929FD001939FB00D1124A0594E
:10138000BE4FFE01319601900D929A95E1F7809340
:101390006F010E944107CACF0E94920510926F010F
:1013A00010926E0187E0E8EAF1E0DF011D928A9574
:1013B000E9F7BCCF819FC001112480599E4F0E9444
:1013C000EE07882309F4B9CFE0916E011E9FF0016A
:1013D0001124E059FE4F2081318142815381648183
:1013E000758186810E94C90580916E0190E0019609
:1013F0008770992780936E019ACF8091B701869567
:101400008695869508958091B7018770089590918B
:10141000B701977081E009F480E008958091C301DD
:1014200008959091C301892B8093C30108958095FD
:101430009091C30198239093C30108951092C30122
:1014400008959091C201892B8093C20108958095DF
:101450009091C20198239093C20108951092C20105
:10146000089508950E94310A08959091B801292F96
:10147000282331F0809589238093B8010E94320A95
:10148000089508950E94410A08959091B901292F65
:101490002823281729F0982B9093B9010E94420A1B
:1014A00008959091B901292F282331F0809589233F
:1014B0008093B9010E94420A08958091B90188235E
:1014C00029F01092B90180E00E94420A08950F931A
:1014D0001F93CF93DF930091000110910101C09100
:1014E000C3018091C201C82B8091B901882331F0DA
:1014F000C82B0E94B01681110E945D0AF801C083BA
:10150000C0910001D091010148E050E06FEA71E024
:10151000CE010E941E22892B59F088E0FE01AFEA1D
:10152000B1E001900D928A95E1F7CE010E94A516D7
:10153000DF91CF911F910F9108950E94670A08953E
:1015400008950E94A00A08959091380292FF11C058
:1015500098E0899F90011124622B6093B7010E944B
:101560001B068091B7018695869586950E94A10AF3
:1015700008950E941B0608951092B70180E00E9412
:10158000A10A08959091B701809589238093B701AE
:10159000282F277069F4891759F09091380292FF2B
:1015A00007C08695869586950E942B060E94BC0AE8
:1015B00008959091380292FB222720F9281769F0AC
:1015C00080FB92F990933802809137029091380213
:1015D0000E94210B82E00E94C20A08958091380285
:1015E00082FB882780F991E089270E94D90A089513
:1015F00081E00E94D90A089580E00E94D90A0895E6
:101600006FEF7FEF90E080E00E947022089590E0FD
:1016100080E00E943C2221E0863E9E4F09F020E0BF
:10162000822F089582E090E00E943422089583E0A2
:1016300090E00E943422089584E090E00E943C22D1
:101640000895BC0184E090E00E9470220895AB01EF
:10165000BC018FE090E00E9464220895AB01BC01C0
:1016600083E190E00E946422089560E070E0CB0185
:101670000E942E0B089560E070E0CB010E94270BC2
:101680000E94350B0895A8E0B0E0E9E4FBE00C947B
:10169000F72166EE7EEF90E080E00E94702260E02D
:1016A00082E090E00E94522281E090E090936D01F0
:1016B00080936C0161E083E090E00E94522260E040
:1016C00074E184E090E00E94702260E086E090E0A7
:1016D0000E94522260E087E090E00E94522240E0A7
:1016E00050E0BA0188E090E00E94642260E084E269
:1016F00090E00E94522260E087E190E00E94522236
:1017000060E08CE090E00E94522260E08DE090E08A
:101710000E94522219821A821B821C821D821E8202
:101720001F82188648E050E068E170E0CE01019623
:101730000E94422240E050E0BA0180E290E00E9424
:1017400064220E943B0B2896E2E00C9413220E9434
:10175000430B0895682F8EE090E00E945222089576
:10176000A6E0B0E0E6EBFBE00C94F5210E94C01788
:101770008C018091C4019091C5018017910781F07F
:1017800019821A820E94C017682F49815A81792FC5
:1017900080E090E00E94D0021093C5010093C40144
:1017A0002696E4E00C9411220E94CE0E6093D401A0
:1017B0007093D5018093D6019093D7016093D001A7
:1017C0007093D1018093D2019093D301089508952D
:1017D00008950E94E70B089508950E94EC0B089568
:1017E00081E0089588EE9EE00E94A3120E94E80B1B
:1017F0000E94E90B08950E949F100895089508958E
:101800000E94FE0B0E94FF0B08950E94070B81119E
:1018100002C00E94A70B0E94120B8093D8010E9465
:101820001C0B90933802809337020E94170B90E0B4
:101830000E94DF0580916A0190916B010E94000671
:1018400008950E94B7170E94A80E0E94A5100E943A
:10185000F60F0E94050C0E94A4020E94C61480E0AC
:101860000E94F0120E94B7100E94ED0B0895A6E0AE
:10187000B0E0EDE3FCE00C94ED210E94F00BC82EEB
:10188000811110C00E94B00BC12C0E949F100E94B9
:101890008D14C1100E9453130E94B7022696ECE0EB
:1018A0000C9409220E94191086ECA82E81E0B82E13
:1018B000750110E0F70101917F01812F0E94F20E66
:1018C0001F5F1A3009F441C00817A1F38091D801B5
:1018D00081FD0E94F80E0E94FB0B982E10E08824D8
:1018E0008394812F0E94F20E082FF50181915F01F0
:1018F000081729F1F12CEE24E394D02ED8268D2D53
:101900008E21A9F0992099F0F9821A830E94C017BC
:101910009C838B838D8291E0802F8E2109F490E04F
:1019200049815A816B817C818D810E94D002F39420
:10193000EE0CF6E0FF12E3CFF501319700831F5F55
:101940001A3079F60E94D40BA0CF0813BFCF9ACFDC
:101950001F93CF93DF930E94B70DEC01C11582E571
:10196000D80708F03FC0C11590E5D90708F0C2C0FC
:10197000C83ED105C0F4C03ED10580F4C53AD105BA
:1019800048F4C430D10550F4C130D10539F0D0E06D
:10199000C0E004C0CD3CD105D0F3D065CE01DF91CD
:1019A000CF911F910895C11580E4D80708F053C066
:1019B000C11590E2D90708F0B7C0C11581E0D8077A
:1019C00030F38D2F0E94590E182FCE0199270E94B7
:1019D000B70DC12FD0E0DC2FCC27CC27DF71C82B6F
:1019E000D92BDCCFC03892E5D907A8F4C03682E500
:1019F000D80708F063C0C03492E5D90708F049C0A1
:101A0000C03282E5D80788F1CF71D0E0DC2FCC2737
:101A1000C16FD06AC3CFC03C92E5D90780F48C2F48
:101A20008F71C03AD24508F45EC00E94590EC82F8B
:101A3000D0E0DC2FCC27CC27DF71D062AFCFC03E07
:101A400082E5D80708F0A3CFDC2FCC27CC27DF71A5
:101A5000C06FD06AA3CFCE0199270E94B70DCC27C3
:101A6000DF70C82BD92BD06A99CF2C2F26952695BD
:101A700090E2299F900111248C2F8370C1E0D0E067
:101A800002C0CC0FDD1F8A95E2F7C22BD32BDD6895
:101A900085CF2C2F26952695277080E2289F9001D0
:101AA00011248C2F8370C1E0D0E002C0CC0FDD1F69
:101AB0008A95E2F7C22BD32BDC6870CF2C2F2695AA
:101AC0002695277090E2299F900111248C2F837016
:101AD000C1E0D0E002C0CC0FDD1F8A95E2F7C22B37
:101AE000D32BDA685BCFC82FD0E0DC2FCC27C46FB4
:101AF000D06A54CF8C2F8F710E94590E55E0D69525
:101B0000C7955A95E1F7CF70D0E0DC2FCC27282F6E
:101B100030E084FF05C044E0220F331F4A95E1F70F
:101B2000C22BD32BD0693ACF8D2F8F710E94590EC3
:101B3000182FCE0199270E94B70DC12FD0E0DC2FBE
:101B4000CC27CC27DF71C82BD92B77CF462F7A3003
:101B500030F4663020F4672F0E94A701089590E0CA
:101B600080E008950E94A60D0E94A80C0895823876
:101B70009105B9F1B0F48133910509F47DC048F4C1
:101B80008932910509F46DC08A32910509F47BC050
:101B900008958533910509F45FC08933910509F1F2
:101BA0000895833E9105D9F138F4803E910529F1DD
:101BB000823E910579F10895863E9105D9F1873EDF
:101BC000910509F43EC0843E910541F5209138020B
:101BD00021FF24C08091370284FD19C087EE90E078
:101BE000089520913702237009F05AC020913802DD
:101BF00023FF14C089E290E008952091370220FD70
:101C000038C03091380230FF09C024FF43C090E053
:101C100080E008952091370222FDF7CF08952091AA
:101C2000370222FD3AC03091380230FD39C024FF1E
:101C3000F5CFEDCF2091370223FFF0CF24FDE7CF82
:101C4000CDCF2091370223FD2EC03091380231FFD5
:101C5000EECF84EE90E008952091370225FFDECF8D
:101C6000C9CF2091370225FD21C02091380223FFE2
:101C7000D5CF89E390E0D2CF2091370226FFCECF97
:101C80008AE290E008952091370226FFC7CF81E3D2
:101C900090E0089583EE90E0089582EE90E008953C
:101CA00080EE90E0089586EE90E0089585E390E060
:101CB00008959091370292FF10C041E0282F2471BF
:101CC000243009F040E031E0282F2871283009F055
:101CD00030E0431711F02CE0822793FF10C041E061
:101CE000282F2471243109F040E031E0282F287199
:101CF000283109F030E0431711F02CE082273091B1
:101D0000380230FF10C051E0282F2171213009F036
:101D100050E041E0282F2871283009F040E05417A6
:101D200011F029E0822731FF10C041E0282F2171F6
:101D3000213109F040E031E0282F2871283109F0E5
:101D400030E0431711F029E0822794FD877E089543
:101D50001092390210923A0210923B0210923C0209
:101D60000895CF92DF92EF92FF926B017C010E9467
:101D70009F1081110EC00E94CC17C61AD70AE80A1C
:101D8000F90AC0923902D0923A02E0923B02F092F4
:101D90003C02FF90EF90DF90CF9008950F931F9338
:101DA0000E949F10882329F00E94CC171F910F9149
:101DB00008950E94CC170091390210913A022091A7
:101DC0003B0230913C02600F711F821F931FEECFC8
:101DD00080E0089508950E94EA0E089508950E94F3
:101DE000EE0E0895E82FF0E0E85BFD4F8081089546
:101DF000089580EA8A95F1F7089500C008950E9439
:101E0000F90E089508950E94020F0895A5E0B0E02C
:101E1000ECE0FFE00C94F3210E949F10F82E6091FB
:101E20005202882309F440C085E0E82E8E010F5F3E
:101E30001F4FF8018E2D11928A95E9F7862F90E0B9
:101E4000B801885B9D4F0E94C5108823B9F080912E
:101E50003D0290E045E050E0B801885B9D4F0E9454
:101E60001E2221E02093D901892B91F4F12C0E94AC
:101E7000EF0E8F2D2596E6E00C940F228091D9016C
:101E80008823A1F3F8011192EA94E9F71092D9019D
:101E9000A0913D02B0E0A85BBD4F85E0F801019044
:101EA0000D928A95E1F7E3CF70E0685B7D4F8091FA
:101EB0003D0290E0885B9D4F0E944C110E94030FF1
:101EC000D8CFF894E82FE295EF70F0E031A1282FF9
:101ED0002F7081E090E001C0880F2A95EAF7982FD3
:101EE0009095932391A392A1892B82A3789408952E
:101EF0000F931F93CF93DF93C3E3D1E089918F3F7B
:101F000011F00E94610F81E0C833D807B9F7CDE224
:101F1000D1E003E311E089918F3F11F00E94610F3E
:101F20000C171D07C1F7DF91CF911F910F910895F5
:101F3000B0E0A0E0EEE9FFE00C94F121EC01D62E38
:101F4000062F10E0C8018D5C9E4F7C01FC01808152
:101F50008F3F09F444C0F894E82FE295EF70F0E069
:101F600091A18F7021E030E001C0220F8A95EAF73D
:101F7000892F822B81A382A12095282322A37894E4
:101F80000E94FD0EEDE2F1E031E0C12C21912F3FE6
:101F900059F1A22FA295AF70B0E090968C9190E08D
:101FA0002F7002C0959587952A95E2F780FD1CC099
:101FB000832FC82A330F81E0E333F80739F7F7019D
:101FC00080818F3F11F00E94610F61E0C11001C05C
:101FD00060E08D2D0E94FF0EC00FD11FC882CDB7CB
:101FE000DEB7E8E00C940D2280E0E3CF809102019F
:101FF0008091020195E0811190E09093520285E07A
:10200000891B80933D020E94780F8AE0E8E4F2E0A9
:10201000DF01982F1D929A95E9F7EEE3F2E0DF01D8
:102020001D928A95E9F785E00E9457100E94EB0EF9
:102030000895AAE0B0E0EFE1F0E10C94F4218E0104
:102040000F5F1F4F8AE0F80111928A95E9F7F12C92
:102050006F2DC8010E94980FF394F5E0FF12F8CF9E
:102060004AE050E0B8018EE392E00E941E2221E097
:10207000009709F420E0892B41F08AE0F801AEE3F3
:10208000B2E001900D928A95E1F76091520270E002
:10209000685B7D4F45E08EE392E00E945810182F58
:1020A0000E94060F812B2A96E5E00C9410220895D9
:1020B000B0E0A0E0EEE5F0E10C94F1216C017B01D1
:1020C000042FC22F222379F081E08093DC010E944B
:1020D000C0179093DB018093DA0180E0CDB7DEB7C3
:1020E000E8E00C940D22D091DC01DD23B1F3809166
:1020F000DA019091DB010E94D817059770F310E088
:10210000A801B601C7010E941E22892B31F0A80147
:10211000B601C7010E942B22CD2F1092DC018C2F1B
:10212000DDCFCF930E94C021C82F811102C00E9431
:10213000BB218C2FCF9108958091E001089580916B
:10214000DF0108950E949F1008950E9491108093CE
:10215000DF010E94A2108093E0010E949C108093F6
:1021600002010E949F1081110E94FB1008950E949D
:102170009F10811102C00E94FE10089581E090918D
:10218000E1019A3008F080E008950F931F93CF93F8
:10219000DF93EC018B018091E1018A30B8F4B80142
:1021A000CE010E944911C82F811122C08091E10106
:1021B0008F3FB9F40E94C0179093DE018093DD0138
:1021C0008C2FDF91CF911F910F9108958091DD01A8
:1021D0009091DE010E94D817843F914000F7C0E043
:1021E000EFCF8F5F8093E1018A3020F7C1E0E8CF25
:1021F0001092E101E5CF0E94F71908950E94FA19A3
:102200000895B0E0A0E0E7E0F1E10C94F22179015B
:10221000C82F880FDD0B41155105A9F0FE0193E091
:10222000EE0FFF1F9A95E1F7ED5FFE4F81819281DE
:102230008E519E4F208130E04217530708F49A01D7
:10224000A9010E942B22CE010E94E31AD82E8823D6
:10225000D1F001151105B9F083E0CC0FDD1F8A958F
:10226000E1F7FE01ED5FFE4F438150E004171507D3
:1022700008F4A801CD5FDE4F6C817D816E517E4FE9
:10228000C7010E942B228D2DCDB7DEB7E7E00C945D
:102290000E220E943B1208950E9452120895A4E05B
:1022A000B0E0E5E5F1E10C94F5216091F901709160
:1022B000FA018091FB019091FC010E94E71711E067
:1022C000643671058105910518F10E94CE0E6E5F8E
:1022D0007F4F8F4F9F4F69837A838B839C8310E05E
:1022E00000E030E020E044E050E0BE016F5F7F4F4F
:1022F00082E00E940111182F882351F00E94CC1710
:102300006093F9017093FA018093FB019093FC01B3
:10231000812F2496E4E00C941122B0E0A0E0E3E9E0
:10232000F1E10C94EF217C015B016A010E94BE1077
:1023300001E010E0882311F00AE010E0C1E0D0E0F5
:10234000B501C701F6010995811104C021960C174A
:102350001D072CF4CDB7DEB7EAE00C940B22CC9F1E
:102360009001CD9F300D300D112490E080E045E3C9
:102370004A95F1F70000019682179307C1F7E0CF65
:10238000A6E0B0E0E6ECF1E10C94EF217B01C09017
:102390003801D090390101E010E09E012A5F3F4FE3
:1023A00050E040E070E060E080E00E940111182FF2
:1023B000882309F448C056018FEFA81AB80A609123
:1023C000F5017091F6018091F7019091F8010E945A
:1023D000E717643671058105910568F105E010E0A5
:1023E0009E012F5F3F4F50E040E070E060E081E0F1
:1023F0000E940111D82E65E070E0C5010E94C7144B
:1024000011E09E81981310E01D2141F10E94CC172C
:102410006093F5017093F6018093F7019093F801B2
:1024200085E0FE013196A0EFB1E001900D928A9512
:10243000E1F711E013C065E070E0C5010E94C71428
:102440009E818913CBCF85E0F6013196DE0111968E
:1024500001900D928A95E1F71111E2CF85E0E0EF4E
:10246000F1E0D70101900D928A95E1F7812F269630
:10247000EAE00C940B220F931F93CF93DF93EC01B0
:102480008B0140EC51E10E948D11882331F04FE423
:1024900051E1B801CE010E948D11DF91CF911F91C2
:1024A0000F9108950F931F93CF93DF93C09138013D
:1024B000D0913901CE01019625E0FB01DC010190AC
:1024C0000D922A95E1F765E070E00E94C7148883B9
:1024D0006E817F81888599850091EC011091ED01D5
:1024E0002091EE013091EF01601771078207930789
:1024F00051F06093EC017093ED018093EE019093A5
:10250000EF010E94B10EDF91CF911F910F910895BD
:102510000E94A31C0E94210C0E94B01C08950E94DE
:10252000B51C0E94370C0E94CF1C08950E945917B9
:102530000E94891C0E94F20B0E9488120E948F1236
:102540000E94000CFBCF90934301809342010895B9
:10255000AB0124E630E0BC0188E70E94C91821E005
:10256000892B09F020E0822F0895AB0124E630E0AA
:10257000BC0188E70E940D1921E0892B09F020E0B9
:10258000822F08950F931F939B0104E610E0AC0186
:1025900060E488E70E94531921E0892B09F020E0CC
:1025A000822F1F910F9108950E9495180895089504
:1025B0000E94D7120895E3E5F2E080E092E0DF01A7
:1025C0009C011D9221503040E1F7F0935A04E093B2
:1025D00059048FEF9FEF9093230280932202089576
:1025E000CF930E94D7120E94D81280931E0280FDC2
:1025F00011C080E880931D020E94D4126BE070E04D
:102600008FE292E00E94B512811106C0C0E08C2FCB
:10261000CF91089580E2EECF80911E0265E070E0D8
:1026200081FD27C08AE292E00E94B512882371F3EF
:102630006DE070E088E192E00E94B512C82F882317
:1026400029F30E94CC17605A75418F4F9F4F6093BA
:1026500055047093560480935704909358040E9435
:10266000DB1281E0809321028093200210921F02EE
:10267000CECF85E292E0D8CF20911D0236E0839F35
:10268000C0011124629F800D911D1124811522E04B
:10269000920714F090E080E08D5A9D4F90935A0479
:1026A00080935904089580912102811103C0809183
:1026B000200208950E94CC17605A75418F4F9F4F9A
:1026C0006093550470935604809357049093580474
:1026D000809120028111EBCF62E070E086E192E010
:1026E0000E94B512882319F381E080932002DFCF86
:1026F000A6E0B0E0EEE7F3E10C94E721182F80911B
:10270000220290912302892B09F1809121028823D2
:10271000E9F080911F02811119C00E9453131C829D
:102720001B8222242394312C03E062E4E62E61E034
:10273000F62E77E0672E8091220290912302009777
:1027400029F0BC81BB2349F0111107C02696E2E1B4
:102750000C9403222B812F5F2B833B81C32ED12C22
:10276000210102C0440C551C3A95E2F7920128233E
:102770003923232B79F380911E0280FD3EC08B818B
:102780008295880F807680931D0196013695279556
:102790003695279520932001815E80931E0120931A
:1027A000210167E070E08BE191E00E94A81288238C
:1027B00069F2C60135E0880F991F3A95E1F720913B
:1027C0001E0220FD28C060E270E08D5A9D4F0E94DD
:1027D000C212882309F4BACFC20180959095409027
:1027E0002202509023024822592250922302409202
:1027F00022024C814F5F4C839ECF8B81880F880FC4
:10280000880F80931D0110922001895F80931E0123
:1028100000932101C6CFADEFB1E0E0E21D92EA9551
:10282000E9F72EE331E03E832D832AE3C22E21E037
:10283000D22EAD81BE816D91BE83AD83F601219113
:102840006F01280F392F311DA9014D5A5D4F5A8351
:102850004983E62FF0E0E350FE4F30E020E0762C95
:10286000721A922C022E01C0990C0A94EAF769811F
:102870007A81A12CDB01BD90BD01B920472D4A19F9
:102880004770842E042E000C550BBB2D01C0BB0FCE
:102890008A94EAF78B2E5195419551094770552737
:1028A00001C0B6944A95EAF78B28B0808B288082C5
:1028B000A39448E0A412DECF2F5F3F4F319628301B
:1028C000310569F6AD81BE81EA16FB0609F0B1CF8C
:1028D00060E270E08DEF91E07ACF809120029091DC
:1028E0002102911103C091E089270895882369F09E
:1028F00062E070E084E192E00E94B512811103C0B1
:102900008091200208951092200280912002EBCF46
:1029100081E008950E94881408950F931F93809179
:102920002102882381F180915304909154040E94E4
:10293000D817C29760F00E94C017909354048093F8
:10294000530460E080E00E943C130E948A1480E0FF
:102950000E947813809120028823A9F00E94CC174E
:102960000091550410915604209157043091580459
:10297000601B710B820B930B6F3F7F4F8F4F9F47F5
:1029800010F40E946D141F910F9108950895FC0199
:10299000680F791F8FEF91E3E617F70709F40895A1
:1029A0002191822728E030E087FF06C0880F892721
:1029B00021503109C9F7F0CF880FFACFCF93DF93B9
:1029C000EB0186319C4711F50E940E0A9D819923E7
:1029D00099F08A7A91E009F490E0909324028111B1
:1029E00009C089E20E9400170E949D0A80E0DF91E1
:1029F000CF91089585E3F6CF80912402811104C020
:102A000089E20E940817F0CF85E3FBCF81E0EFCF8A
:102A1000CF93DF93EC01FB018581882309F4D2C0B9
:102A20009E0130572332310508F0B2C00E941C0BC2
:102A30009093380280933702FE01E150F047E23272
:102A4000F10520F4EC56FD4D0C94E1218091370204
:102A500081608093370293C08091380288608093B0
:102A600038028DC0809137028260F3CF80913702A7
:102A70008460EFCF809137028860EBCF809138027D
:102A80008160EDCF809138028260E9CF809137027A
:102A90008061DFCF809137028062DBCF8091370287
:102AA0008064D7CF0E949205809137028068D1CF91
:102AB000809137028C60CDCF809138028360CFCF78
:102AC000809137028E7FC5CF80913802877FC7CF34
:102AD000809137028D7FBDCF809137028B7FB9CF38
:102AE00080913702877FB5CF809138028E7FB7CF34
:102AF000809138028D7FB3CF809137028F7EA9CF2E
:102B0000809137028F7DA5CF809137028F7BA1CF37
:102B10000E949205809137028F779BCF8091370278
:102B2000837F97CF809138028C7F99CF8091370235
:102B300082FB992790F921E0922790FB82F990FB84
:102B400083F987CF80913802982F909591708E7F6E
:102B5000892B90FB81F983CF90913702892F8F7B4E
:102B600096FF806476CF0E94920590913702892F5C
:102B700097FB87F980586DCF81E00E94AA0B809166
:102B80003702909138020E94210B0E94920580E04A
:102B9000DF91CF91089580E0F0CF90913702892F97
:102BA0008F7E94FF806155CF90913702892F8E7F61
:102BB00090FF81604ECF90913802892F877F93FFDD
:102BC00088604DCF81E0E4CF0F931F93CF93DF93C5
:102BD000C42FD22FFC0185818823C9F0409327029E
:102BE0000E94C017909326028093250280E28C0FEA
:102BF000883040F4C77081E001C0880FCA95EAF7B9
:102C00000E946903DF91CF911F910F910895109158
:102C10002702141332C080912502909126020E944F
:102C2000D817883C910548F5C0E2CD0F1D17B9F0C3
:102C300080E2810F883040F4177081E001C0880F76
:102C40001A95EAF70E947003C83048F481E09D2F7E
:102C5000977001C0880F9A95EAF70E946903802F48
:102C60000E946003C83070F6D77081E001C0880F01
:102C7000DA95EAF70E947003C5CF80E28C0F8830A6
:102C800008F6C77081E001C0880FCA95EAF7F2CF55
:102C90000F93DB0188519C4787309105A0F5FC011B
:102CA000EA54FD4D0C94E12106E221EE41EE6AE189
:102CB0007CE7CD010E94E41580E00F91089507E2C2
:102CC00025EE45EE6BE17CE7F4CF06E221EE40EE27
:102CD00068E17CE7EECF07E225EE44EE69E17CE7B0
:102CE000E8CF06E221EE42EE6CE17CE7E2CF07E2BC
:102CF00025EE46EE6DE17CE7DCCF08E221E045EE13
:102D00006EE17CE7D6CF15968C91882319F010924E
:102D10002702D3CF81E0D1CF90932A02809329025A
:102D200008950E949F10811103C080912802089588
:102D3000E0912902F0912A02309729F00190F08168
:102D4000E02D0995089580E00895E0912902F09121
:102D50002A02309721F00280F381E02D0995089531
:102D600040910001509101019A012E5F3F4F485F51
:102D70005F4F80E02417350709F40895F901919118
:102D80009F019923B9F38F5FF5CF882371F02091CC
:102D9000000130910101F9013296285F3F4F919176
:102DA000981729F0E217F307D1F780E0089581E042
:102DB00008959C01FC0132969FEF80E041914617F7
:102DC00051F09F3F19F4411101C0982F8F5F863059
:102DD000A9F79F3F09F40895290F311D97FD3A95F2
:102DE000F90162830895FC01329608962191261319
:102DF00003C0DF0111971C92E817F907B9F708958E
:102E0000682F80910001909101010E94D9160895C8
:102E1000682F80910001909101010E94F31608959E
:102E2000E0910001F0910101329686E0DF011D92F0
:102E30008A95E9F7089508950E941B170895811156
:102E400006C081E080932B020E941C17089582E047
:102E5000F9CF83E080932B020E941C1708950E94F3
:102E60001F17089581E080932B020E941C1708957C
:102E70000E9432170895089508950E943C170895FE
:102E8000089508950E943B170895CF930E9440171C
:102E90000E9419100E944117C0E08C2F0E94F20E70
:102EA000811105C0CF5FCA30C1F7CF91089581E08D
:102EB000FCCF85B7806885BF85B7806885BF0895DA
:102EC0001F921FB61F9211248F939F93AF93BF93AE
:102ED00080912C02811113C080915B0490915C045D
:102EE000A0915D04B0915E044196A11DB11D809337
:102EF0005B0490935C04A0935D04B0935E04BF9167
:102F0000AF919F918F911F901FBE1F901895809138
:102F10006304843031F10E94850210922C0288E112
:102F200090E020E40FB6F894A895809360000FBE5F
:102F30002093600083B7817F846083BF83B7816003
:102F400083BF7894889583B78E7F83BF0FB6F8943C
:102F5000A895809160008861809360001092600065
:102F60000FBE08950E9492050E948C02089582E08F
:102F700084BD93E095BD9AEF97BD80936E00089550
:102F80002FB7F89480915B0490915C04A0915D044C
:102F9000B0915E042FBF08952FB7F89460915B0441
:102FA00070915C0480915D0490915E042FBF089540
:102FB0009C014FB7F89480915B0490915C04A091C0
:102FC0005D04B0915E044FBF821B930B0895CF92B6
:102FD000DF92EF92FF922FB7F894C0905B04D090ED
:102FE0005C04E0905D04F0905E042FBFA7019601A1
:102FF000261B370B480B590BCA01B901FF90EF9004
:10300000DF90CF90089578941F921FB61F921124DD
:103010008F939F93AF93BF9380915B0490915C04D7
:10302000A0915D04B0915E040196A11DB11D809335
:103030005B0490935C04A0935D04B0935E04BF9125
:10304000AF919F918F911F901FBE1F90189587E79A
:1030500097E7909301088093000888E19AE00FB603
:10306000F894A895809360000FBE90936000FFCF06
:1030700088E19AE00FB6F894A895809360000FBE9F
:1030800090936000FFCFEF92FF920F931F93CF9327
:10309000DF93182FEB011092BC0084EA8093BC00F0
:1030A0000E94C0177C018091BC0087FF27C08091DF
:1030B000B900887F883029F08091B900887F8031FD
:1030C00089F51093BB0084E88093BC000E94C01770
:1030D0008C018091BC0087FF1EC02091B900287F21
:1030E00090E080E0283191F081E090E0203411F40C
:1030F00090E080E091958195910908C0C7010E94F8
:10310000D817C817D90778F68EEF9FEFCDB7DEB77F
:10311000E6E00C940F22C8010E94D817C817D907FF
:10312000C0F6F2CF8FEF9FEFF1CF1092B9008CE095
:103130008093B80008950F931F93CF93DF93EB0113
:103140008093BB0084E88093BC000E94C0178C0170
:103150008091BC0087FF11C02091B900287F81E0D9
:1031600090E0283211F490E080E0919581959109EA
:10317000DF91CF911F910F910895CF3FDC0741F36D
:10318000C8010E94D817C817D90710F78EEF9FEF14
:10319000EFCFB0E0A0E0EFECF8E10C94EC21782E5A
:1031A0005B016A0189010E94C0174C01C1E0D0E0B7
:1031B0000431110558F0C5E0D0E00F3F100731F0A1
:1031C000C80164E170E00E94CD21EB01BE01872DB2
:1031D0000E9443187C0197FF09C00F3F1007B1F30D
:1031E000C4010E94D8170817190780F7E501CA0C17
:1031F000DB1CCC15DD0511F0F7FE09C084E98093D6
:10320000BC00C701CDB7DEB7EDE00C940822B801D1
:1032100089910E949B187C01ECCFB0E0A0E0E3E133
:10322000F9E10C94EC21782E5B016A0189010E947E
:10323000C0174C01C1E0D0E00431110558F0C5E0E1
:10324000D0E00F3F100731F0C80164E170E00E9448
:10325000CD21EB01BE01872D0E9443187C0197FF11
:1032600009C00F3F1007B1F3C4010E94D817081717
:10327000190780F7E501CA0CDB1CCC15DD0511F040
:10328000F7FE09C084E98093BC00C701CDB7DEB763
:10329000EDE00C940822FE018491B8010E949B1875
:1032A0007C012196EACFB0E0A0E0E9E5F9E10C94D9
:1032B000EB21682E762E5A0169010E94C0174C013D
:1032C000C1E0D0E00431110558F0C5E0D0E00F3F77
:1032D000100731F0C80164E170E00E94CD21EB01DC
:1032E000BE01862D0E9443187C0197FF1DC00F3F31
:1032F0001007B1F3C4010E94D8170817190780F707
:1033000084E98093BC00C701CDB7DEB7EEE00C9432
:103310000722B80189910E949B187C01CC16DD061A
:1033200079F3F7FEF6CFECCFB801872D0E949B18FA
:103330007C01E501CA0CDB1CF1CF8EE14A9B02C087
:103340008150E1F74A9BFECF08955A9880E28A9512
:10335000F1F75A9A0895FC013BE03A95F1F798E0AD
:1033600020E080E031E040E14A95F1F7880F4A9B88
:1033700002C08160232742E04A95F1F7000040E156
:103380004A95F1F7915079F790E19A95F1F799B153
:1033900032E03A95F1F7000040E14A95F1F792FBEF
:1033A000992790F992272081920F90830895A1E0A8
:1033B000B0E0EDEDF9E10C94F32119828C017C0170
:1033C000E60EF11C0E151F0541F481E09981911163
:1033D00080E02196E6E00C940F220E949D19CE0118
:1033E00001960E94AB19F80181938F01EBCF529A9D
:1033F0005A9A089552985A9AEA9AE9E6F0E080813A
:103400008F7C808308956150770B91E001C0990F04
:103410006A95EAF720E031E0911108C0222391F08B
:103420005A9A80E28A95F1F75A980895492F4823CD
:1034300039F05A9A232740E24A95F1F79695ECCF56
:103440005A98F9CF5A98EDCFFF920F931F93CF93CD
:10345000DF93EC018C01060F111DC017D10729F471
:10346000CDB7DEB7E5E00C941022F9900E94A519C3
:1034700068E08F2D0E94031AF0CF1F920F920FB6B3
:103480000F9211240F931F932F933F934F935F93AA
:103490006F937F938F939F93AF93BF93EF93FF931C
:1034A000CF93DF930F92CDB7DEB719820E949D199B
:1034B000CE0101960E94AB19082F06950695069538
:1034C000282F22952570902F9570290F922F937099
:1034D00026952695920F982797708981982B09F049
:1034E0005CC0043008F059C080E18A95F1F75A9A1F
:1034F000529A82E08A95F1F700C05A9888E0089FB6
:1035000080011124D801AD5FBE4F1696ED91FC915C
:1035100017973097A9F0609138017091390114968E
:103520002D913C911597260F371F11968D919C91E7
:103530001297680F791F13964C9113978C910995E8
:10354000F801ED5FFE4F6381662351F02091380151
:103550003091390184819581820F931F0E94241A32
:103560000E94A51980E18A95F1F75A9852985A9AC3
:1035700080E18A95F1F7F801ED5FFE4F60816623E7
:1035800051F0209138013091390181819281820F6F
:10359000931F0E94D7190E949D190F90DF91CF9120
:1035A000FF91EF91BF91AF919F918F917F916F911B
:1035B0005F914F913F912F911F910F910F900FBEEF
:1035C0000F901F9018950F931F93CF93DF93EC01EB
:1035D00004970CF04CC0F894529A5A9885E08A955A
:1035E000F1F700009C2F969595708C2F8570980FA1
:1035F000892F83709695969523E0CC0FDD1F2A9531
:10360000E1F7980F8E01092B0E94A51900C068E010
:10361000802F0E94031A80E18A95F1F752985A9AF6
:103620004A9B1EC087E090E04A991CC0FE01ED5FF6
:10363000FE4F63816623F9F0209138013091390102
:1036400084819581820F931F0E94D719811113C025
:10365000529A5A9A7894DF91CF911F910F910895C1
:1036600000C0DECF019729F4529A5A9A789480E0EC
:10367000F2CF00C0D9CF0E949D1980E28A95F1F760
:103680005A98529A80E18A95F1F7CD5FDE4F6881B2
:10369000662351F0209138013091390189819A8156
:1036A000820F931F0E94241A0E94A519789481E02A
:1036B000D2CF8091350208950895089508959B0111
:1036C000BA01909163049430E9F48F708093E9001B
:1036D0009FEF8091E800915085FD06C085ED8A95A9
:1036E000F1F700009111F5CF8091E80085FF0AC045
:1036F00050E040E0C9010E94341D8091E8008E77BF
:103700008093E8000895CF93DF93EC0148E050E008
:10371000BC0181E00E945F1B88E0FE01ADE2B2E0E7
:1037200001900D928A95E1F7DF91CF9108958091F4
:103730006204811109C00E94C41E0E94211F809151
:10374000E20084608093E20008951092620408957C
:103750000E943217089560915F0481E0611101C0F9
:1037600080E00E94291708959091630481E09430CD
:1037700009F080E060915F040E942F17089542E0F5
:1037800061EC81E00E94401E9091630481E09430DE
:1037900009F080E060915F040E941F1708958091F6
:1037A0006504833009F461C030F48130D1F1823096
:1037B00009F49EC008958A3009F48AC08B3009F458
:1037C0006FC0893009F050C080916404813209F0E3
:1037D0004BC08091680490916904892B09F044C022
:1037E0008091E800877F8093E8008091E80082FF65
:1037F00037C09091F3008091F200029731F48091EC
:10380000F100813011F0863021F48091F100809335
:1038100035028091E8008B778093E8000E94741E47
:1038200023C080916404813AF9F48091E800877F95
:103830008093E8008091680490916904892B61F479
:1038400068E08DE292E070E00E94831D8091E800C4
:103850008B778093E800089560E090E080E0F3CFFC
:10386000809163048111C1CF089580916404813AED
:10387000D9F78091680490916904892BA9F7809108
:10388000E800877F8093E8008091E80080FFFCCF0C
:1038900080912C018093F1008091E8008E77BCCF5D
:1038A00080916404813201F78091680490916904E9
:1038B000892BD1F68091E800877F8093E8000E94F1
:1038C000741E8091660480932C010E9492050895D5
:1038D00080916404813241F68091E800877F809373
:1038E000E8000E94741E8091670480933602089558
:1038F00080916404813A09F0B7CF8091E800877F16
:103900008093E8008091E80080FFFCCF8091360230
:10391000C1CF84B7877F84BF0FB6F894A8958091F4
:103920006000886180936000109260000FBE80E8A4
:1039300090E00FB6F89480936100909361000FBE01
:103940000E94381708950E94C41E0E94211FE2EEB3
:10395000F0E080818460808378940E94A0210895A3
:1039600082E291E00E948C16089580916304853074
:1039700031F480916304853019F00E94B2170895E4
:103980000E94871780916104882399F30E9445174C
:10399000882379F30E941E1D0E949205EACF0895A4
:1039A0009A0140916A0450916B040E94D81C0895BA
:1039B000492F552743305105C9F058F4413051057E
:1039C00099F142305105A9F190E080E050E040E0EB
:1039D0001DC04132510509F142325105A9F784E475
:1039E00090E044E952E0672B79F710C099278130C5
:1039F000910581F0009729F0029731F7EAE3F2E0B0
:103A000002C0ECE5F2E0849190E0AF01F90151834E
:103A100040830895EAE4F2E0F6CF89E090E042E7DF
:103A200052E0672B89F6F2CF82E190E042E852E063
:103A3000EDCF82E290E040E652E0E8CF80E189BD40
:103A400082E189BD09B400FEFDCF8091D8008F7D51
:103A50008093D8008091E00082608093E0008091A4
:103A6000E00081FDFCCF0895AF92BF92CF92DF922C
:103A7000FF920F931F93CF93DF936C01EB018A01A9
:103A80000E94931EF82E811123C00115110539F0F3
:103A9000F80180819181C81BD90BC80ED91EB12CA9
:103AA000A12C2097A9F08091E80085FD22C080918B
:103AB000E8008E778093E80001151105A1F0F80168
:103AC00080819181A80EB91EB182A08285E0F82E76
:103AD0008F2DDF91CF911F910F91FF90DF90CF90AD
:103AE000BF90AF9008950E94931E8823D1F2F82EC4
:103AF000EFCFF60181916F018093F1002197FFEFE5
:103B0000AF1ABF0ACECFFC0180916A0490916B047A
:103B100086179707A0F06115710529F49091E800C8
:103B20009E779093E80090E06115710551F4911132
:103B300008C08091E80082FF34C080E00895BC0195
:103B4000F2CF809163048823C1F18530C1F1809167
:103B5000E80083FD30C08091E80082FDEACF8091CB
:103B6000E80080FFE1CF8091F3002091F200382F30
:103B70006115710519F02830310558F091E02830B1
:103B8000310509F090E02091E8002E772093E800BD
:103B9000CBCF81918093F100615071092F5F3F4F2E
:103BA000E7CF80916304882341F0853041F0809114
:103BB000E80083FFBECF81E0089582E0089583E0AE
:103BC0000895FC0180916A0490916B048617970711
:103BD000A0F06115710529F48091E8008E7780933B
:103BE000E80090E06115710551F4911108C08091D1
:103BF000E80082FF35C080E00895BC01F2CF8091DB
:103C000063048823C9F18530C9F18091E80083FD00
:103C100031C08091E80082FDEACF8091E80080FF0A
:103C2000E1CF8091F3002091F200382F61157105EA
:103C300019F02830310558F091E02830310509F0AD
:103C400090E08091E8008E778093E800CBCF84915C
:103C50008093F1003196615071092F5F3F4FE6CF9D
:103C600080916304882341F0853041F08091E80021
:103C700083FFBDCF81E0089582E0089583E0089539
:103C8000982F973028F08F708093E90081E0089595
:103C90009093E900242F762F50E0981731F070911F
:103CA000EC002091ED005091F00021FD02C09F5FDB
:103CB000E8CF3091EB003E7F3093EB003091ED0088
:103CC0003D7F3093ED003091EB0031603093EB009D
:103CD0007093EC002093ED005093F0002091EE00E3
:103CE00027FDE5CF80E008958091640487FF13C02D
:103CF0008091E80082FF06C08091E8008B77809376
:103D0000E80004C0809163048111F2CF089580918E
:103D100063048823D9F38091E80080FFF8CF809175
:103D2000E8008E77ECCF2091E4003091E50095E635
:103D3000A9012091EC00822F817020FF06C08091A4
:103D4000E80080FF06C080E008952091E80022FD91
:103D50001AC080916304882389F0853089F08091AE
:103D6000EB0085FD0FC02091E4003091E500421783
:103D70005307F9F29150E1F684E0089582E0089546
:103D800083E0089581E008950E94331F0E943B1F45
:103D9000E0EEF0E0808181608083E8EDF0E08081FA
:103DA0008F77808319BCA7EDB0E08C918E7F8C93C8
:103DB00080818F7E80831092620408950F931F93F9
:103DC000CF93DF930E94331F0E943B1FC8EDD0E0CA
:103DD00088818F77888388818068888388818F7DB8
:103DE000888319BC1092630410925F0410926104DE
:103DF0001092600400EE10E0F80180818B7F8083D8
:103E000088818160888342E060E080E00E94401EFB
:103E1000E1EEF0E080818E7F8083E2EEF0E0808151
:103E200081608083808188608083F80180818E7FBB
:103E30008083888180618883DF91CF911F910F916A
:103E40000895E8EDF0E080818F7E8083E7EDF0E07B
:103E500080818160808384E082BF81E080936204FE
:103E60000E94DE1E0895E8EDF0E080818E7F808361
:103E70001092E20008951092DA001092E100089585
:103E80001F920F920FB60F9211242F933F934F93CF
:103E90005F936F937F938F939F93AF93BF93EF93B2
:103EA000FF938091E10082FF0BC08091E20082FFCE
:103EB00007C08091E1008B7F8093E1000E949F21E9
:103EC0008091DA0080FF19C08091D80080FF15C072
:103ED0008091DA008E7F8093DA008091D90080FF94
:103EE00096C080E189BD82E189BD09B400FEFDCFA5
:103EF00081E0809363040E94971B8091E10080FF22
:103F000019C08091E20080FF15C08091E2008E7F91
:103F10008093E2008091E20080618093E2008091D2
:103F2000D80080628093D80019BC85E08093630438
:103F30000E94AB1B8091E10084FF2BC08091E200C6
:103F400084FF27C080E189BD82E189BD89B5982FB2
:103F5000917080FFFBCF8091D8008F7D8093D80037
:103F60008091E1008F7E8093E1008091E2008F7E5E
:103F70008093E2008091E20081608093E200809172
:103F80005F04882309F449C084E0809363040E949D
:103F9000B41B8091E10083FF29C08091E20083FF80
:103FA00025C08091E100877F8093E10082E08093CB
:103FB000630410925F048091E1008E7F8093E100A2
:103FC0008091E2008E7F8093E2008091E200806128
:103FD0008093E20042E060E080E00E94401E809119
:103FE000F00088608093F0000E94A81BFF91EF9181
:103FF000BF91AF919F918F917F916F915F914F9101
:104000003F912F910F900FBE0F901F90189519BCE4
:10401000109263040E94A51B70CF8091E30087FD7E
:1040200093E090936304B3CF1F920F920FB60F9259
:1040300011242F933F934F935F936F937F938F93AD
:104040009F93AF93BF93CF93DF93EF93FF93D09161
:10405000E900DF708091EC00C82FC17080FDC0E8DE
:104060001092E9008091F000877F8093F0007894AF
:104070000E9458201092E9008091F000886080939F
:10408000F000CD2BCF70C093E900FF91EF91DF914D
:10409000CF91BF91AF919F918F917F916F915F91E0
:1040A0004F913F912F910F900FBE0F901F90189539
:1040B000AAE2B0E0EEE5F0E20C94F62184E694E0AA
:1040C0002091F100FC012193CF01F4E08C369F0791
:1040D000B9F70E94CF1B8091E80083FF1EC1809139
:1040E0006404909165049A3008F017C1E92FF0E05C
:1040F000E354FD4D0C94E121803899F0823809F0A9
:104100000CC1809168048F70873008F006C18093DD
:10411000E9008091EB0085FB882780F91092E90087
:1041200006C0809160049091610491118260909129
:10413000E800977F9093E8008093F1001092F100DF
:104140008091E8008E77E5C0882309F4D3C08230DF
:1041500009F0E3C0809166048111D6C080916804A3
:104160008F702FEF280F263008F0D7C08093E9001A
:104170002091EB0020FFC8C0933031F48091EB0018
:1041800080628093EB00C0C09091EB0090619093AF
:10419000EB0021E030E001C0220F8A95EAF720937E
:1041A000EA001092EA008091EB008860EACF81116A
:1041B000B4C0109166041F778091E3008078812B52
:1041C0008093E3008091E800877F8093E8000E945D
:1041D000741E8091E80080FFFCCF8091E30080682E
:1041E0008093E30082E0111183E08093630495C023
:1041F0008058823008F091C08091660490916704E5
:104200008C3D23E09207A1F583E08A838AE28983CB
:104210004FB7F894DE01139620E03EE051E2E32F21
:10422000F0E050935700E49120FF03C0E295EF7057
:104230003F5FEF708E2F90E0EA30C0F0C7968D930D
:104240009D932F5F243159F74FBF8091E800877FFE
:104250008093E8006AE270E0CE0101960E94831D1F
:104260008091E8008B778093E80057C0C096E7CF35
:104270006091680470916904AE014F5F5F4F0E94C6
:10428000D01CBC01892B09F448C09091E800977FAD
:104290009093E80089819A810E94E11DE1CF8038E6
:1042A000E1F58091E800877F8093E80080915F04CA
:1042B0008093F10045CF811130C090916604923017
:1042C00060F58091E800877F8093E80090935F0419
:1042D0000E94741E80915F04882311F084E005C061
:1042E0008091E30087FDFACF81E0809363040E9410
:1042F000BF1B13C080916604813079F481E0933054
:1043000009F080E0809361041092E9008091E80058
:10431000877F8093E8000E94741E8091E80083FFED
:104320000AC08091E800877F8093E8008091EB00CD
:1043300080628093EB00AA96E3E00C941222089529
:10434000CF93809163048823A1F0C091E900CF70DE
:104350009091EC00892F817090FD80E8C82B10921D
:10436000E9008091E80083FD0E945820CF70C0933F
:10437000E900CF9108950E94C41E1092630408952D
:10438000E8EDF0E08081806180838AE18A95F1F731
:1043900000C08091D90081700895AA1BBB1B51E118
:1043A00007C0AA1FBB1FA617B70710F0A61BB70BA5
:1043B000881F991F5A95A9F780959095BC01CD014A
:1043C0000895EE0FFF1F0590F491E02D09942F92B0
:1043D0003F924F925F926F927F928F929F92AF9295
:1043E000BF92CF92DF92EF92FF920F931F93CF93E2
:1043F000DF93CDB7DEB7CA1BDB0B0FB6F894DEBF79
:104400000FBECDBF09942A88398848885F846E849E
:104410007D848C849B84AA84B984C884DF80EE80E8
:10442000FD800C811B81AA81B981CE0FD11D0FB6F1
:10443000F894DEBF0FBECDBFED010895FB01DC0196
:1044400004C08D910190801921F441505040C8F76B
:10445000881B990B0895FB01DC0102C001900D92AD
:1044600041505040D8F70895F999FECF92BD81BDD3
:10447000F89A992780B50895A8E1B0E042E050E0AD
:104480000C947822DC01A40FB51F4150504048F035
:10449000CB01840F951F2E910E9453224150504012
:1044A000D0F70895262FF999FECF92BD81BDF89AD5
:1044B000019700B4021639F01FBA20BD0FB6F89468
:1044C000FA9AF99A0FBE08950396272F0E94532255
:1044D0000E945222252F0E945322242F0C945322F3
:1044E0000196272F0E9453220C945222DC01CB010B
:1044F000FC01F999FECF06C0F2BDE1BDF89A3196F4
:1045000000B40D9241505040B8F70895F894FFCF91
:10451000B803B80308040804E703E703E703E70365
:104520006D04DE04ED04ED046015D4156815321534
:1045300036156C153A1570157C154615CD154A15AE
:1045400080154E158415AC1552158815B3155815E0
:104550008E1596153E157415421578155C15921535
:10456000A215BC15CB152C156415DB1565166B163D
:1045700054165F16711677167D167C20A4208D21A7
:0E458000A4208D21D720F8208D214F215B2112
:10458E00BA0101000000010000000000000005015A
:10459E0000000004060000000000000021007F2241
:1045AE000003591B831B5D1B5E1B5C1B01F6F73161
:1045BE003332366697C63435E201000810181810EB
:0245CE000800E3
:00000001FF
